:020000040800F2
:10000000000002200D1E0008551E0008551E0008A5
:10001000551E0008551E0008551E0008000000006F
:10002000000000000000000000000000551E000855
:10003000551E000800000000551E0008551E00084F
:10004000551E0008551E0008551E0008551E0008C4
:10005000551E0008551E0008B1040008551E000872
:10006000551E0008551E0008551E0008551E0008A4
:10007000551E0008551E0008551E0008551E000894
:10008000551E0008551E0008551E0008551E000884
:10009000551E0008551E0008551E0008551E000874
:1000A000551E0008551E0008551E0008551E000864
:1000B000551E0008551E0008551E0008551E000854
:1000C000551E0008551E0008551E0008551E000844
:1000D000551E0008551E0008551E0008551E000834
:1000E000551E0008551E0008551E0008551E000824
:1000F000551E0008551E0008551E0008551E000814
:10010000551E0008551E0008551E0008551E000803
:10011000551E0008551E0008551E0008551E0008F3
:10012000551E0008551E0008551E0008551E0008E3
:10013000551E0008551E0008551E0008551E0008D3
:10014000551E0008551E0008551E0008551E0008C3
:10015000551E0008551E0008551E0008551E0008B3
:10016000551E0008551E0008551E0008551E0008A3
:10017000551E0008551E0008551E0008551E000893
:08018000551E0008551E000881
:1001880010B5054C237833B9044B13B10448AFF3C9
:1001980000800123237010BD6C04002000000000C3
:1001A800B4A1020808B5034B1BB103490348AFF3D8
:1001B800008008BD0000000070040020B4A10208FF
:1001C800154B002B08BF134B9D46A3F5803A002121
:1001D8008B460F461348144A121A01F06DFE0F4B56
:1001E800002B00D098470E4B002B00D098470020DA
:1001F800002104000D000D48002802D00C4801F031
:1002080023FF01F035FE2000290001F0DBFD01F09D
:100218001FFE00BF000008000000000000000000F2
:10022800000000006C040020C08400205120000859
:100238005D20000830B5012185B04FF4804000F002
:100248003BFD0021022000F00DFE082301240DEBE8
:10025800030000258DF80D3002948DF80E408DF8BE
:100268000C5000F019FA062301A88DF807408DF804
:100278000650ADF8043001F0AFFC05B030BD00BF4A
:1002880038B50121042000F0E7FC084B0848072294
:10029800032502241A60002219465D71DC711A7167
:1002A8009A71BDE8384000F0EFBA00BF880400201A
:1002B8000008024038B50121102000F0CDFC084BA1
:1002C80008484FF47F42032502241A600022194689
:1002D8005D71DC711A719A71BDE8384000F0D4BACA
:1002E800880400200010024038B50121082000F0E1
:1002F800B3FC084B08484FF6FF72032502241A6026
:10030800002219465D71DC711A719A71BDE8384096
:1003180000F0BABA88040020000C024038B5012168
:10032800084600F099FC084B0848002203250224DF
:100338009A71012219465D71DC711A601A71BDE863
:10034800384000F0A1BA00BF880400200000024035
:10035800354B36481A68002142F001021A6099604C
:100368001A6822F0847222F480321A6058601A687F
:1003780082B022F480221A60D960009101911A6833
:1003880042F480321A601A4603E0009BB3F5A06F6E
:1003980009D0136803F400330193009B01330093E1
:1003A800019B002BF1D0204B1B6813F4003318BFBE
:1003B80001230193019B012B05D01D4B4FF00062D7
:1003C8009A6002B07047184B1A491A6C1A4842F0E2
:1003D80080521A640A6842F480420A609A689A60F5
:1003E8009A6842F400429A609A6842F4A0529A606D
:1003F80058601A6842F080721A601A689201FCD537
:100408000E49094A40F205600860996821F0030125
:100418009960996841F002019960936803F00C03B0
:10042800082BFAD1C9E700BF003802401030002479
:1004380000ED00E00070004008544007003C024016
:10044800154A936803F00C03042B23D0082B09D01A
:10045800124B114A12499268C2F303128A5CD340C4
:100468000B6170475068516852684302C2F38812A2
:1004780001F03F014CBF0B4B084BB3FBF1F303FBFF
:1004880002F3054A5268C2F3014201325200B3FB3B
:10049800F2F3DEE7034BDCE7003802400024F40007
:1004A8000400002000127A00684B1A685B69DB07B9
:1004B8004ED5D0074CD500BF00BF00BF00BF00BF5E
:1004C80000BF00BF00BF00BF00BF614B6149186992
:1004D8000B6913F0020382B202D10969490746D4B5
:1004E80000BF00BF00BF00BF00BF00BF00BF00BF0C
:1004F80000BF00BF00BF00BF00BF00BF00BF00BFFC
:1005080000BF00BF00BF00BF00BF00BF00BF00BFEB
:1005180000BF00BF00BF00BF00BF00BF4E4902F5CB
:10052800C04309699BB2B3F5005FC1F3072113D338
:10053800A2F50053B3F5005F43D2484A137801F09F
:100548001F0123F01F030B4309B943F00103137084
:100558003E4B01225A617047414A424B127803EBE5
:10056800423313FA80F3A3F520431970F0E73A49B0
:1005780010B4B2F5804F3C4C0C602DD301044AD422
:10058800364B3A4A1978013983B202EB8132D35C8F
:100598001B02314A536100BF00BF00BF00BF00BF4C
:1005A80000BF00BF00BF00BF00BF00BF00BF00BF4B
:1005B80000BF00231360254B5DF8044B01225A61EC
:1005C8007047B2F5C04F15D30004C1D4284B002999
:1005D80038D101221A70BBE726490C7883B2B4B926
:1005E80040F23310824204BF01220A70224AD35CCF
:1005F8001B02CEE71E4B1B78FBB1184A137801F09B
:10060800070103F01F0343EA41131370A0E7174AD9
:10061800D35C1B02BDE702F5C04292B2B2F5005F9F
:10062800B7D20F4A0F4B127803EB423313FA80F319
:10063800A3F520431B781B02ABE7094B01F003012C
:10064800197085E700221A7082E700BF003C01405C
:10065800000C0240000802400010024092040020F2
:1006680091040020980400200000555580A100083E
:1006780093040020940400207C210008044B0549C1
:1006880000221A605A609A60DA605961704700BFA8
:10069800003C0140FFFF7F000379827970B4056850
:1006A80003F1804303F59E33EC43F2B1154A4179D7
:1006B8001668264016605668344054601C68254306
:1006C8001D6000689468C3431C409460D468102976
:1006D80003EA0403D3600DD001F1804303F59E3390
:1006E80070BC1A681043186070471A6814401C6080
:1006F80070BC7047936803439360D3681843D06015
:1007080070BC7047003C014000230C22427103601A
:1007180003718371704700BF024A1369184310615F
:10072800704700BF003C0140034B5B69034214BFA4
:1007380001200020704700BF003C0140014B586178
:10074800704700BF003C0140054B1A685B690340D5
:1007580004D0024214BF0120002070471846704799
:10076800003C0140014B5861704700BF003C01400C
:1007780008B53C4B984222D03B4B984229D03B4B82
:10078800984230D03A4B984237D03A4B98420CD0E6
:10079800394B98423BD0394B984242D0384B98421B
:1007A80055D0384B984246D008BD0121102000F0A2
:1007B8008FFA00211020BDE8084000F089BA012115
:1007C800084600F085FA00210120BDE8084000F045
:1007D8007FBA0121022000F07BFA00210220BDE847
:1007E800084000F075BA0121042000F071FA0021D8
:1007F8000420BDE8084000F06BBA0121082000F091
:1008080067FA00210820BDE8084000F061BA01211C
:10081800202000F05DFA00212020BDE8084000F00B
:1008280057BA0121402000F053FA00214020BDE8CA
:10083800084000F04DBA01214FF4807000F048FAEA
:1008480000214FF48070BDE8084000F041BA012152
:10085800802000F03DFA00218020BDE8084000F02B
:1008680037BA00BF000002400004024000080240FE
:10087800000C024000100240001402400018024020
:10088800001C0240002002402DE9F047D1F800C0CA
:10089800002301274FF0030E02E00133102B3FD055
:1008A80007FA03F232EA0C04F7D15C00D0F80080B2
:1008B8000E790EFA04F5ED4308EA0508C0F8008041
:1008C800D0F800A006FA04F9013E49EA0A09012E07
:1008D8000EFA04F8C0F8009016D8D0F808904E79AF
:1008E80005EA09058560D0F808908D79A64046EAA2
:1008F80009068660466826EA02024260466805FAEA
:1009080003F292B232434260C568CA7925EA080503
:10091800C560C568A24001332A43102BC260BFD10D
:10092800BDE8F08700234FF6FF7202600371437140
:100938008371C371704700BF82B04FF48033019355
:10094800019B0B430193019BC361C161019BC3617F
:10095800C3690193C369019302B0704703691942DF
:1009680014BF012000207047006980B2704700BFA3
:100978004369194214BF012000207047406980B2C2
:10098800704700BF01837047418370470AB94183AC
:1009980070470183704700BF416170474369594000
:1009A80041617047CB0800EB830001F0070110B4E8
:1009B800036A89000F248C4023EA04030362036A54
:1009C8005DF8044B02FA01F119430162704700BF58
:1009D8000A4B0B481A68002142F001021A6099601C
:1009E8001A6822F0847222F480321A6058601A68F9
:1009F80022F480221A60D960704700BF0038024094
:100A080010300024024B00221A701870704700BF83
:100A18000238024082B00023094A0193136813F494
:100A2800003F019B03F101030193019B02D1B3F540
:100A3800A06FF3D1024B1868C0F3404002B0704772
:100A480000380240034A136823F0F80343EAC00061
:100A58001060704700380240014B1860704700BFB3
:100A680000004742064B002201281A701A7005D070
:100A7800042802D105221A70704770471870704711
:100A880070380240014B1860704700BF800E474223
:100A980030B4029C064D40EA04605B080843013B01
:100AA80040EA821040EA0340686030BC704700BFEB
:100AB80000380240014B1860704700BF6000474291
:100AC8000907034B41EA8011C3F88410704700BF3F
:100AD80000380240014B1860704700BF6800474269
:100AE800014B1860704700BF4C004742034A9368A7
:100AF80023F0EC63194301439160704700380240CA
:100B0800034A936823F0784319430143916070477F
:100B180000380240034A936823F0030318439060A7
:100B2800704700BF00380240024B986800F00C0084
:100B3800704700BF00380240034A936823F0F0036F
:100B480018439060704700BF00380240034A93681A
:100B580023F4E05318439060704700BF0038024008
:100B6800034A936823F4604343EAC00090607047E7
:100B7800003802401F4A936803F00C03042B10B49A
:100B880034D0082B19D01C4B03601A4A1B499468AF
:100B9800C4F303140C5DE34043609468C4F38224F7
:100BA8000C5D23FA04F4846092685DF8044BC2F388
:100BB80042328A5CD340C3607047546851685268B7
:100BC8006302C2F3881201F03F014CBF0C4B0A4B81
:100BD800B3FBF1F303FB02F3064A5268C2F3014286
:100BE80001325200B3FBF2F30360CEE7044B03601B
:100BF800CBE700BF003802400024F40018000020B2
:100C080000127A0000F44073B3F5407F09D1084917
:100C18008A6820F0704322F4F81223F440731343D7
:100C28008B60034B1A6FC0F30B00104318677047B3
:100C380000380240014B1860704700BF3C0E474225
:100C4800014B1860704700BF400E4742014B1860C7
:100C5800704700BF5C014742044A136B19B923EA85
:100C68000000106370471843106370470038024053
:100C7800044A536B19B923EA0000506370471843BC
:100C88005063704700380240044A936B19B923EA4D
:100C98000000906370471843906370470038024023
:100CA800044A136C19B923EA00001064704718430A
:100CB8001064704700380240044A536C19B923EA9B
:100CC8000000506470471843506470470038024071
:100CD800044A136919B923EA0000106170471843E0
:100CE8001061704700380240044A536919B923EA71
:100CF8000000506170471843506170470038024047
:100D0800044A936919B923EA0000906170471843AF
:100D18009061704700380240044A136A19B923EAFF
:100D28000000106270471843106270470038024094
:100D3800044A536A19B923EA0000506270471843FD
:100D48005062704700380240044A136D19B923EA0B
:100D5800000010657047184310657047003802405E
:100D6800044A536D19B923EA0000506570471843C7
:100D78005065704700380240044A936D19B923EA58
:100D8800000090657047184390657047003802402E
:100D9800044A136E19B923EA000010667047184315
:100DA8001066704700380240044A536E19B923EAA6
:100DB800000050667047184350667047003802407C
:100DC800044A137819B923EA0000107070471843D1
:100DD800107070470D3802404309012B0BD0022BCD
:100DE800094B0CBF1B6F5B6F00F01F0023FA00F06C
:100DF80000F001007047044B1B6800F01F0023FA45
:100E080000F000F00100704700380240024A536FBA
:100E180043F080735367704700380240034BDB6828
:100E2800184214BF01200020704700BF003802405C
:100E3800014B1870704700BF0E38024008B50121F9
:100E48004FF48040FFF774FF00214FF48040BDE865
:100E58000840FFF76DBF00BF014B1860704700BF27
:100E68000038014001F0FC0303F1804303F59C3393
:100E780001F0030110B49A6889000F248C4022EA1B
:100E880004029A609A685DF8044B00FA01F1114374
:100E980099607047014B1860704700BFDC0027421B
:100EA800014B1860704700BF00042742024B186AC4
:100EB800C0F30020704700BF0038014008B5604B00
:100EC800984232D0B0F1804F39D05E4B984240D032
:100ED8005D4B984247D05D4B98421CD05C4B984282
:100EE8004BD05C4B984252D05B4B984265D05B4BE1
:100EF80098426CD05A4B984253D05A4B984272D071
:100F0800594B98427BD0594B984200F08E80584BF1
:100F180098427ED008BD01210820FFF7FDFE002180
:100F28000820BDE80840FFF7F7BE01210846FFF793
:100F3800FFFE00210120BDE80840FFF7F9BE0121AE
:100F48000846FFF7E9FE00210120BDE80840FFF749
:100F5800E3BE01210220FFF7DFFE00210220BDE8E9
:100F68000840FFF7D9BE01210420FFF7D5FE002174
:100F78000420BDE80840FFF7CFBE01211020FFF78D
:100F8800CBFE00211020BDE80840FFF7C5BE0121B7
:100F98002020FFF7C1FE00212020BDE80840FFF710
:100FA800BBBE01214FF40030FFF7C2FE00214FF411
:100FB8000030BDE80840FFF7BBBE01210220FFF763
:100FC800B7FE00210220BDE80840FFF7B1BE0121AD
:100FD8004FF48030FFF7ACFE00214FF48030BDE8BD
:100FE8000840FFF7A5BE01214FF48020FFF7A0FEBF
:100FF80000214FF48020BDE80840FFF799BE012189
:101008004020FFF789FE00214020BDE80840FFF797
:1010180083BE01214FF48070FFF77EFE00214FF45C
:101028008070BDE80840FFF777BE01218020FFF7F8
:1010380073FE00218020BDE80840FFF76DBE00BFA9
:10104800000001400004004000080040000C00407F
:10105800001000400014004000040140004001401E
:10106800004401400048014000180040001C0040B6
:1010780000200040214A0388904270B49BB212D0ED
:1010880002F5806290420ED0B0F1804F0BD0A2F5ED
:101098008032904207D002F58062904203D002F578
:1010A8008062904203D14A8823F070031343144DA1
:1010B8004C680A88A84215D005F58065A84211D069
:1010C8000E8923F4407305F56C459BB23343A8425F
:1010D8000380C46202850CD18B7A03860123838244
:1010E80070BC70470380C46202850123838270BC90
:1010F8007047044B9842EFD0F7E700BF000001406B
:10110800001000400004014000234FF0FF32C0E906
:10111800003203818372704701858282704700BF65
:10112800038823F070031B041B0C194301807047CC
:1011380041627047C1627047406A7047008D7047CE
:10114800038829B923F002031B041B0C0380704792
:1011580043F0020303807047038829B923F004038E
:101168001B041B0C0380704743F004030380704783
:10117800038829B923F080031B041B0C03807047E4
:1011880043F0800303807047038823F008031B049F
:101198001B0C03800388194301807047038823F4DC
:1011A80040731B041B0C038003881943018070479C
:1011B800038829B923F001031B041B0C0380704723
:1011C80043F0010303807047F0B4048C8D89B1F8B3
:1011D80002C00F88194E24F001042404240C04844E
:1011E800028C8488038B22F0020223F0730312041A
:1011F8001B04120C45EA0C051B0CB04242EA05021E
:10120800A4B243EA070309D00D4DA84206D0896865
:1012180084800383F0BC416302847047CE890D8AC1
:101228004F8A22F0080232438E8824F4407422F058
:1012380004023D4332432C43E9E700BF000001406C
:1012480000040140F0B4048C8E89B1F802C00F8804
:101258001D4D24F010042404240C0484038C848879
:10126800028B23F0200322F4E6421B0412041B0C19
:1012780046EA0C06120C43EA061342EA0722A84281
:101288009BB2A4B292B20AD005F58065A84206D0F6
:10129800896884800283F0BC816303847047CD89A8
:1012A8000E8A4F8A23F0800343EA05134FF6BF7571
:1012B8001D408B8824F440643E4345EA031344EA06
:1012C80086049BB2A4B2E3E700000140F0B5048CA9
:1012D8008D89B1F802E00F881D4E24F4807424042F
:1012E800240C0484038CB0F804C0828B23F40073AC
:1012F8001B0422F0730245EA0E041B0C120443EA95
:101308000423120CB0429BB21FFA8CF542EA070282
:1013180008D0104CA04205D0896885808283C163BB
:101328000384F0BDCC890E8A4F8A23F4006343EA14
:1013380004234FF6FF341C408B8825F440553E4368
:1013480044EA032345EA06149BB2A5B2E4E700BFCA
:101358000000014000040140F0B4048C8E89B1F80B
:1013680002C00F88164D24F480542404240C0484ED
:10137800038C8488828B23F4005322F4E6421B04F6
:1013880012041B0C46EA0C06120C43EA063342EA26
:101398000722A8429BB2A4B292B20AD005F5806592
:1013A800A84206D0896884808283F0BC01640384E3
:1013B80070470D8A24F4804444EA8514A4B2F1E706
:1013C80000000140002303608380C0E90233036109
:1013D800704700BF038C10B401248C4023EA040337
:1013E80021F00804038418307CB10439C1F34E019C
:1013F80048F6FF740B5823400B5012020B585DF847
:10140800044B92B21A430A50704749084FF68F743A
:101418000B5823400B500B585DF8044B1A430A50E5
:10142800704700BF4163704781637047C16370476D
:1014380001647047038B23F070031B041B0C1943D2
:1014480001837047038B23F4E0431B041B0C43EA1E
:10145800012189B201837047838B23F070031B0439
:101468001B0C194381837047838B23F4E0431B04CF
:101478001B0C43EA012189B281837047038B23F057
:1014880008031B041B0C194301837047038B23F4C7
:1014980000631B041B0C43EA012189B201837047D6
:1014A800838B23F008031B041B0C194381837047AB
:1014B800838B23F400631B041B0C43EA012189B2CC
:1014C80081837047038B23F004031B041B0C19430F
:1014D80001837047038B23F480631B041B0C43EACE
:1014E800012189B201837047838B23F004031B0415
:1014F8001B0C194381837047838B23F480631B047F
:101508001B0C43EA012189B281837047038B23F0C6
:1015180080031B041B0C194301837047038BC3F31F
:101528000E0343EA012189B201837047838B23F0BC
:1015380080031B041B0C194381837047838BC3F3FF
:101548000E0343EA012189B281837047038C23F09B
:1015580002031B041B0C194301847047038C23F0FE
:1015680008031B041B0C194301847047038C23F0E8
:1015780020031B041B0C43EA011189B20184704744
:10158800038C23F080031B041B0C43EA011189B26E
:1015980001847047038C23F400731B041B0C43EA7B
:1015A800012189B201847047038C23F400631B0472
:1015B8001B0C43EA012189B201847047038C23F490
:1015C80000531B041B0C43EA013189B201847047A4
:1015D800038C10B401248C4023EA04030384038C95
:1015E8005DF8044B02FA01F1194389B2018470478E
:1015F800038C10B404248C4023EA04030384038C72
:101608005DF8044B02FA01F1194389B2018470476D
:101618000B88F0B44D888F880E89C98853B3042B82
:101628004AD0082B038C6ED023F480531B041B0C68
:101638000384828B048C330340F6FF46164045F63C
:10164800FF72224043EA072342F48052334342EABE
:1016580005329BB292B283830284838B23F4406366
:101668001B041B0C8383838B43EA012189B281838A
:10167800F0BC7047048C24F001042404240C048476
:10168800038B028C9BB223F0F30392B23B4322F00C
:101698000A0243EA06132A439BB242F0010203837B
:1016A8000284038B23F00C031B041B0C0383038BA2
:1016B80019430183F0BC7047038C23F010031B040B
:1016C8001B0C0384048B028C3B0292B243EA06365D
:1016D80022F0A00240F6FF43234042F010023343B9
:1016E80042EA05129BB292B203830284038B23F46D
:1016F80040631B041B0C0383038B43EA012189B25B
:101708000183F0BC704723F480731B041B0C038413
:10171800838B028C9BB292B223F0F30322F42062F3
:101728003B4342F4807243EA061342EA05229BB225
:1017380092B283830284838B23F00C031B041B0C5B
:101748008383838B19438183F0BC70470023012274
:10175800828003804380C38003817047B1F802C050
:101768000A890B882DE9F041B1F804E0CD88BCF175
:10177800000F4FEA021114BF002602261203BEF121
:10178800010F4FEA052414BF0127022789B292B23C
:10179800A4B2002B44D0038C23F010031B041B0CB1
:1017A8000384B0F81880038C9BB242EA0E2E23F013
:1017B800A00340F6FF4202EA080243F0100342EA9F
:1017C8000E0243EA0C1392B29BB202830384038B8A
:1017D80023F440631B041B0C0383038B1C43048307
:1017E800038C23F001031B041B0C0384028B038C62
:1017F80092B29BB222F0F30223F00A0343F00103F2
:1018080011431E430F4307830684038B23F00C0305
:101818001B041B0C0383038B1D430583BDE8F08168
:10182800038C23F001031B041B0C0384B0F81880FD
:10183800038C1FFA88F89BB228F0F30823F00A03F8
:101848004EEA080E4CEA030341EA0E0143F0010395
:1018580001830384038B23F00C031B041B0C0383F9
:10186800038B1D430583038C23F010031B041B0CFF
:101878000384058B038C40F6FF419BB2294023F07B
:10188800A00343F010030A4343EA061642EA072777
:1018980007830684038B23F440631B041B0C038318
:1018A800038B1C430483BDE8F08100BF406B704785
:1018B800806B7047C06B7047006C7047038B23F0D8
:1018C8000C031B041B0C0383038B19430183704710
:1018D800038B23F440631B041B0C0383038B43EA31
:1018E800012189B201837047838B23F00C031B0409
:1018F8001B0C8383838B194381837047838B23F469
:1019080040631B041B0C8383838B43EA012189B248
:101918008183704770B40B884C888A88CE880D897B
:10192800234313434C898A8933432B43234313436B
:10193800A0F8443070BC7047002303804380838044
:10194800C380038143818381704700BFB0F844306E
:1019580021B9C3F30E03A0F84430704743F40043A1
:10196800A0F84430704700BF838829B923F00403E6
:101978001B041B0C8380704743F00403838070476B
:10198800838829B923F001031B041B0C838070474B
:1019980043F001038380704783891AB923EA010160
:1019A8008181704719438181704700BF81827047E8
:1019B800038A194214BF012000207047C94389B225
:1019C80001827047038A828911EA030092B203D028
:1019D8000A4214BF01200020704700BFC94389B2E2
:1019E800018270470A43A0F848207047FFF7D4BF28
:1019F800838829B923F008031B041B0C83807047D4
:101A080043F0080383807047038923F007031B040E
:101A18001B0C0381704700BF038923F070031B046C
:101A28001B0C19430181038943F0070303817047A5
:101A3800602970B426D0068C26F001063604360CD0
:101A48000684048B058C24F0F3042404240C25F06C
:101A58000A0544EA03142D0442F0010644F0010487
:101A68002D0CA4B2354304830584038923F0700345
:101A78001B041B0C19430181038943F007030381ED
:101A880070BC7047048C24F010042404240C0484D3
:101A9800048B068C26F0A00640F6FF4536042C4041
:101AA800360C44EA033446EA021644F4807446F0DD
:101AB8001006A4B2B6B204830684D6E710B404892B
:101AC80042EA03231943E4B2214389B2018103891D
:101AD8005DF8044B23F077031B041B0C43F07703DA
:101AE8000381704710B4048942EA03231943E4B21E
:101AF800214389B2018103895DF8044B43F4804393
:101B080003817047038923F070031B041B0C1943DE
:101B180001817047838823F070031B041B0C8380AA
:101B28008388194381807047038923F007031B04C6
:101B38001B0C03810389194301817047038923F032
:101B480080031B041B0C038103891943018170471F
:101B580010B404890A43E4B242EA032323439BB244
:101B680003815DF8044B704770B442EA031205899B
:101B7800038B048C0A4E24F0220425F00705240464
:101B88001E402D04240C2D0C46F480731443294365
:101B9800A4B243F0010301810383048470BC70473D
:101BA800FCFCFFFF838829B923F080031B041B0C6E
:101BB8008380704743F0800383807047A0F85010FB
:101BC800704700BF40F0BF60024B40F40030D8605F
:101BD800704700BF00ED00E0F0B40178C37801243D
:101BE80001F01F0294404D092BB920350F4B43F8E3
:101BF8002540F0BC70470E4B4678DB6882780B4F67
:101C0800D843C0F30220C0F10403DBB29E400F2387
:101C18000341F6B21340334339441B01DBB281F868
:101C2800003347F82540F0BC704700BF00E100E0F2
:101C380000ED00E021F0604121F07F01014B0143FC
:101C48009960704700ED00E0044A136919B923EA66
:101C580000001061704718431061704700ED00E004
:101C6800044A136804280CBF43F0040323F0040358
:101C78001360704710E000E030B50F4C054683B0A4
:101C880054F82000012104EB4504FEF7E5FF0B4A58
:101C9800238A52F825000093022201230024694672
:101CA8008DF804308DF807308DF806408DF8052042
:101CB800FEF7EAFD03B030BD80A10208280000202D
:101CC800044B054A03EB400352F820201B8A138378
:101CD800704700BF80A1020828000020044B054A75
:101CE80003EB400352F820201B8A5383704700BF40
:101CF80080A1020828000020054B064A52F820203F
:101D080003EB40005169038A4B405361704700BFA1
:101D180080A102082800002030B50D46012187B0B7
:101D280004460846FEF798FF01214FF48040FEF76D
:101D3800C3FF184806A900EB84000123002441F8DA
:101D4800103D00698DF80C408DF80F40FEF79CFDA2
:101D5800012D01D007B030BD21462046FFF782F89B
:101D6800082304A88DF8153004958DF814408DF8D3
:101D78001650FEF791FC40F606720F2301A88DF865
:101D88000750ADF804208DF80630FFF725FF07B09F
:101D980030BD00BF2800002008B5044B03EB8000CD
:101DA80001210069FEF7DAFD08BD00BF2800002008
:101DB800E4A10208000000206C0400206C0400204C
:101DC800C084002008B5FEF775FAFEF78DFAFEF715
:101DD80057FAFEF72FFA064B064C07480749084AF8
:101DE80001251D700023237003700B701370FEE72C
:101DF8009204002091040020900400209304002005
:101E080094040020002103E00B4B5B58435004313D
:101E18000A480B4B42189A42F6D30A4A02E00023BA
:101E280042F8043B084B9A42F9D3FEF791FA00F0C6
:101E38001FF8FFF7C7FF7047E4A102080000002061
:101E48006C0400206C040020C0840020FEE7000021
:101E580008B50021044600F083F8044B1868C36BEA
:101E680003B19847204628F0AFF900BFB0A1020897
:101E780070B50D4E0D4D761BB61006D000240134FA
:101E880055F8043B9847A642F9D1094E094D761BEF
:101E980028F08EF9B61006D00024013455F8043B1A
:101EA8009847A642F9D170BDD8A10208D8A1020866
:101EB800E0A10208D8A10208F0B4860743D0541E56
:101EC800002A3ED0CAB2034602E014F1FF3438D3E8
:101ED80003F8012B9D07F8D1032C2BD9CDB245EA85
:101EE80005250F2C45EA054516D9A4F110073F0929
:101EF80003F1200606EB071603F1100242E9045528
:101F080042E902551032B242F8D104F00F04013709
:101F1800032C03EB07130DD91E462246043A032A65
:101F280046F8045BFAD8221F22F003020432134455
:101F380004F003042CB1C9B21C4403F8011B9C42F1
:101F4800FBD1F0BC704714460346C5E7024B13B1FA
:101F5800024800F079B87047000000005D200008D2
:101F68002DE9F04F354B85B00F460390186800F007
:101F780095F8334B1B68019303F5A4730293B94694
:101F8800019BD3F848613EB3DDF808A04FF0010883
:101F98007468651E0FD4013406EB84040027B9F178
:101FA800000F20D0D4F800314B451CD0013D6B1CEC
:101FB800A4F10404F3D1234B73B1D6E90032002A0B
:101FC80034D1002B32D03046CAF80030AFF300804D
:101FD800DAF80060002EDBD1184B186805B0BDE8B0
:101FE800F04F00F063B873682268013BAB420CBF46
:101FF80075602760002AD9D0D6F88811D6F804B0C1
:1020080008FA05F30B4208D1904773685B45B7D1CE
:10201800DAF80030B342C9D0B2E7D6F88C01D4F868
:102028008010034207D103989047EEE7B2461E4658
:10203800002EADD1D0E708469047E6E768040020B7
:10204800B0A1020800000000002301461A46184605
:1020580000F02EB838B50A4C0A4D641BA4100AD0FB
:1020680004F18043013B05EB8305013C55F8043935
:102078009847002CF9D1BDE8384028F09FB800BF38
:10208800E4A10208E0A10208704700BF704700BF42
:10209800704700BF704700BF704700BF704700BF60
:1020A8000120704701207047704700BF704700BF8C
:1020B8002DE9F8432B4D0646286898460F46914669
:1020C800FFF7ECFF284B1C68D4F84831002B3DD0B3
:1020D8005A681F2A0DDC02F1010C16BB0232C3F844
:1020E80004C0286843F82270FFF7E0FF0020BDE82D
:1020F800F8831E4B7BB34FF4C870AFF300800346E0
:1021080048B3D4F848210021C0E900214FF0010C60
:10211800C4F848010A46C0F88811C0F88C11002E8E
:10212800DCD003EB82010124C1F88890D3F8880140
:1021380094402043022EC3F88801C1F80881CDD10C
:10214800D3F88C110C43C3F88C41C7E704F5A67388
:10215800C4F84831BCE72868FFF7A8FF4FF0FF3004
:10216800C5E700BF68040020B0A102080000000015
:1021780000800000C38B020000000000C38B02FF38
:10218800FFFFFFFFFFFFFFFFFFFFFFFFFFFFFFFF57
:10219800FFFFFFFFFFFFFFFFFFFFFFFF87E15F1666
:1021A80000195E2356D5E1E9FFFFFFFFFFFFFFFFA0
:1021B800FFFFFFFFC3FD01FFFFFFFFFFC31227FF64
:1021C800FFFFFFFFC31227FFFFFFFFFFC37E01FFD3
:1021D800FFFFFFFFFFFFFFFFFFFFFFFFFFFFFFFF07
:1021E800FFFFFFFFFFFFFFFFFFFFFFFFFFFFFFFFF7
:1021F800FFFFFFFFFFFFFFFFFFFFFFFFFFFFFFFFE7
:10220800FFFFFFFFFFFFFFFFFFFFFFFFFFFFFFFFD6
:10221800FFFFFFFFFFFFFFFFFFFFFFFFFFFFFFFFC6
:10222800FFFFFFFFFFFFFFFFFFFFFFFFFFFFFFFFB6
:10223800FFFFFFFFFFFFFFFFFFFFFFFFFFFFFFFFA6
:10224800FFFFFFFFFFFFFFFFFFFFFFFFFFFFFFFF96
:10225800FFFFFFFFFFFFFFFFFFFFFFFFFFFFFFFF86
:10226800FFFFFFFFFFFFFFFFFFFFFFFFFFFFFFFF76
:10227800FFFFFFFF00C350010000F88FAAB900005C
:1022880055D9199D7444D111E1116666CCCC000072
:1022980000008888110066F9991155337447D11DDB
:1022A800111E6066C0CC00000000000000000000A5
:1022B8000000000000000000000000000000010015
:1022C80000E62E0FFFFFFFFFFFFFFFFFFFFFFFFFEF
:1022D800FFFFFFFFFFFFFFFFFFFFFFFFFFFFFFFF06
:1022E800FFFFFFFFFFFFFFFFFFFFFFFFFFFFFFFFF6
:1022F800FFFFFFFFFFFFFFFFFFFFFFFFFFFFFFFFE6
:10230800FFFFFFFFFFFFFFFFFFFFFFFFFFFFFFFFD5
:10A17800FFFFFFFF00000200C30001000000000015
:10A18800C300010000000000C3000100000000003F
:10A19800C300010000000000C3000100000000002F
:10A1A800C300010000000000C3000100000000001F
:10A1B800C300010000000000C300CA000000000046
:10A1C800C310CA0000000000D90000000000000011
:10A1D800D900000000000000D9F041E60220FA2A68
:10A1E80012130B78B120F2C9F041E60220FA2A12C4
:10A1F800130520F406147BC60C5F3E008A570D2019
:10A20800E7C90E200620F041E60220FA2A121305BB
:10A2180020F406200D20EFC9010004F041E60220D9
:10A22800FA7A220B78B120F3C97A220B78B120F997
:10A23800C97AE0BD7BE0BC2A121C0578FE0020F735
:10A24800C9F0BD67F0BC6F7EFE4028103D77FE0068
:10A25800200A232AE0477CE0BD7DE0BCC9F044FE2B
:10A268009138FAC90000000000000000000000005A
:10A27800000000000000000000C35001CEED66663B
:10A28800CC0D000B03730083000C000D0008111F98
:10A298008889000EDCCC6EE6DDDDD999BBBB67632F
:10A2A8006E0EECCCDDDC999FBBB9333E504F434B6F
:10A2B80045542D44454D4F2020000000000000016A
:10A2C80002000001008B6022F331FFCFCDE5003E94
:10A2D80003EA0020CD0040CD03403E01CD0C403EB6
:10A2E80001EA0020EA84FF2100CA11E83F3EC322A8
:10A2F8007B227A773EFCE0473EFFE048CDE500FB55
:10A308003E02EA0020E0840100082100D0AF220BC1
:10A3180078B120F91100D021004006302A121C051E
:10A3280020FA06301E00147AFED820F0CDE500CDC4
:10A338007A15CDE5002100FE0614AF772C772C772F
:10A348002C772C772C772C772C772C0520ED3E500A
:10A35800EA00FE3E88EA01FE3E8CEA02FE3ECCE0C0
:10A368004721284411008801A001CD610006140E80
:10A378002021A84111009CCD70003E9BE0403E404A
:10A38800E042F0FFCBC7E0FF214C0216801E080117
:10A39800DA01CDE50015201016042AEA01FE1D2079
:10A3A80007214C0216D01E08CD7A150B78B120E291
:10A3B8003EFCE0473E99E0403E00EA00FE3E00EAEF
:10A3C80001FE18088988878889888788AFE097E020
:10A3D80098CDE500F044B720FBF0973CE097FE0CE1
:10A3E80020EFAFE097F0983CE098FE01280AFE02C3
:10A3F800280CFE03280E18123EECE04718D33EDC6A
:10A40800E04718CD3ECCE04718C7CDE500CD7A151A
:10A41800CDE500CD7A15CDE500CD7A15CDE500CD99
:10A428007A15CDE500CD7A15CDE500CD7A1516283B
:10A43800210098CDA00006140E012180411100983A
:10A44800CD700006140E0121944111009CCD7000BE
:10A4580021B845110080014001CD610021B84511A6
:10A468004081014001CD61003E01EA0020E08421E5
:10A4780000C811004006901A13772422250520F7FA
:10A488003EECE047CDE500F3F0FFCBCFCBC7E0FFD4
:10A49800F041CBDFE0412100CA110B0A3EC3227B09
:10A4A800227A772110CA110C1006101A13220520DF
:10A4B800FAFBAFE08EE08FE090E096E097E098E05E
:10A4C800993EC8E092E0913E01E0943E7CE0953EE2
:10A4D80040E042CDE500F044FE0020FA3E18E09648
:10A4E800F099FE012813F0953C3C3CE095FE0020D5
:10A4F800113E01E0993EFBE095F0953D3D3D3D3D27
:10A50800E095CDBD05010AC03EC0E0973E09E09840
:10A518003ED0E08DCD4009010AC13EC1E0973E0919
:10A52800E0983ED1E08DCD4009010AC23EC2E097D5
:10A538003E09E0983ED2E08DCD4009010AC33EC3F2
:10A54800E0973E09E0983ED3E08DCD40093E01E01A
:10A558008E010AC43EC4E0973E09E0983ED4E08DDF
:10A56800CD4009010AC53EC5E0973E09E0983ED5B1
:10A57800E08DCD4009010AC63EC6E0973E09E09845
:10A588003ED6E08DCD4009010AC73EC7E0973E0997
:10A59800E0983ED7E08DCD4009FA95FF4F0600F0D0
:10A5A80091672E4716F41E007B915F7A9857C61064
:10A5B800327B915F7A9857C610327B915F7A9857B1
:10A5C800C610327B915F7A9857C610327B915F7ABA
:10A5D8009857C610327B915F7A9857C610327B9194
:10A5E8005F7A9857C610327B915F7A9857C61032B7
:10A5F8007B915F7A9857C610327B915F7A9857C6DD
:10A6080010327B915F7A9857C610327B915F7A98A7
:10A6180057C610327B915F7A9857C610327B915F8C
:10A628007A9857C610327B915F7A9857C610327B5A
:10A63800915F7A9857C610327B915F7A9857C61007
:10A64800327B915F7A9857C610327B915F7A985720
:10A65800C610327B915F7A9857C610327B915F7A29
:10A668009857C610327B915F7A9857C610327B9103
:10A678005F7A9857C610327B915F7A9857C6103226
:10A688007B915F7A9857C610777DFEFFC23004F041
:10A6980091571E4826F42E00097CC610121C097C0E
:10A6A800C610121C097CC610121C097CC610121C8C
:10A6B800097CC610121C097CC610121C097CC61025
:10A6C800121C097CC610121C097CC610121C097CBD
:10A6D800C610121C097CC610121C097CC610121C5C
:10A6E800097CC610121C097CC610121C097CC610F5
:10A6F800121C097CC610121C097CC610121C097C8D
:10A70800C610121C097CC610121C097CC610121C2B
:10A71800097CC610121C097CC610121C097CC610C4
:10A72800121C097CC610121C7BFE90C220053E023A
:10A73800E08EC35E034F0600F096672E001100CB33
:10A74800097C121C097C121C097C121C097C121C35
:10A75800097C121C097C121C097C121C097C121C25
:10A76800097C121C097C121C097C121C097C121C15
:10A77800097C121C097C121C097C121C097C121C05
:10A78800097C121C097C121C097C121C097C121CF5
:10A79800097C121C097C121C097C121C097C121CE5
:10A7A800097C121C097C121C097C121C097C121CD5
:10A7B800097C121C097C121C097C121C097C121CC5
:10A7C800097C121C097C121C097C121C097C121CB5
:10A7D800097C121C097C121C097C121C097C121CA5
:10A7E800097C121C097C121C097C121C097C121C95
:10A7F800097C121C097C121C097C121C097C121C85
:10A80800097C121C097C121C097C121C097C121C74
:10A81800097C121C097C121C097C121C097C121C64
:10A82800097C121C097C121C097C121C097C121C54
:10A83800097C121C097C121C097C121C097C121C44
:10A84800097C121C097C121C097C121C097C121C34
:10A85800097C121C097C121C097C121C097C121C24
:10A86800097C121C097C121C097C121C097C121C14
:10A87800097C121C097C121C097C121C097C12F030
:10A8880096571E002100CC7B915F7A9857227B91C6
:10A898005F7A9857227B915F7A9857227B915F7AEB
:10A8A8009857227B915F7A9857227B915F7A9857C5
:10A8B800227B915F7A9857227B915F7A9857227B07
:10A8C800915F7A9857227B915F7A9857227B915FA4
:10A8D8007A9857227B915F7A9857227B915F7A9872
:10A8E80057227B915F7A9857227B915F7A985722FB
:10A8F8007B915F7A9857227B915F7A9857227B9158
:10A908005F7A9857227B915F7A9857227B915F7A7A
:10A918009857227B915F7A9857227B915F7A985754
:10A92800227B915F7A9857227B915F7A9857227B96
:10A93800915F7A9857227B915F7A9857227B915F33
:10A948007A9857227B915F7A9857227B915F7A9801
:10A9580057227B915F7A9857227B915F7A9857228A
:10A968007B915F7A9857227B915F7A9857227B91E7
:10A978005F7A9857227B915F7A9857227B915F7A0A
:10A988009857227B915F7A9857227B915F7A9857E4
:10A99800227B915F7A9857227B915F7A9857227B26
:10A9A800915F7A9857227B915F7A9857227B915FC3
:10A9B8007A9857227B915F7A9857227B915F7A9891
:10A9C80057227B915F7A9857227B915F7A9857221A
:10A9D8007B915F7A9857227B915F7A9857227B9177
:10A9E8005F7A9857227B915F7A9857227B915F7A9A
:10A9F8009857227B915F7A9857227B915F7A985774
:10AA0800227B915F7A9857227B915F7A9857227BB5
:10AA1800915F7A9857227B915F7A9857227B915F52
:10AA28007A9857227B915F7A9857227B915F7A9820
:10AA380057227B915F7A9857227B915F7A985722A9
:10AA48007B915F7A9857227B915F7A9857227B9106
:10AA58005F7A9857227B915F7A9857227B915F7A29
:10AA68009857227B915F7A9857227B915F7A985703
:10AA7800227B915F7A9857227B915F7A9857227B45
:10AA8800915F7A9857227B915F7A9857227B915FE2
:10AA98007A9857227B915F7A9857227B915F7A98B0
:10AAA80057227B915F7A9857227B915F7A98572239
:10AAB8007B915F7A985777C92100CBCD8909CD89D9
:10AAC80009CD8909CD8909CD8909CD8909CD89099A
:10AAD800CD8909CD8909CD89092100CCF09747F0A6
:10AAE800984FCDCA09CDCA09CDCA09CDCA09CDCA60
:10AAF80009CDCA09CDCA09CDCA09CDCA09CDCA0925
:10AB0800C9C5AF4FF08D572A5F1AE680A94F2A5F53
:10AB18001AE640A94F2A5F1AE620A94F2A5F1AE6CB
:10AB280010A94F2A5F1AE608A94F2A5F1AE604A956
:10AB38004F2A5F1AE602A94F2A5F1AE601A9C10245
:10AB480003C9C5AF4FF08D572A5F1AE601A94F2AEE
:10AB58005F1AE602A94F2A5F1AE604A94F2A5F1A6C
:10AB6800E608A94F2A5F1AE610A94F2A5F1AE620BD
:10AB7800A94F2A5F1AE640A94F2A5F1AE680A9C1A1
:10AB8800020BC9F5C5D5E5F08EFE012807FE02289F
:10AB98000DC3DA0FF08FFE00CA300AC3070DF08F1D
:10ABA800FE00CA830BC3590E2100C02AEA00802A7E
:10ABB800EA10802AEA20802AEA30802AEA40802A9D
:10ABC800EA50802AEA60802AEA70802AEA80802A8D
:10ABD800EA90802AEAA0802AEAB0802AEAC0802A7D
:10ABE800EAD0802AEAE0802AEAF0802AEA00812A6C
:10ABF800EA10812AEA20812AEA30812100C12AEA62
:10AC080002802AEA12802AEA22802AEA32802AEA84
:10AC180042802AEA52802AEA62802AEA72802AEA74
:10AC280082802AEA92802AEAA2802AEAB2802AEA64
:10AC3800C2802AEAD2802AEAE2802AEAF2802AEA54
:10AC480002812AEA12812AEA22812AEA3281210033
:10AC5800C22AEA04802AEA14802AEA24802AEA34EA
:10AC6800802AEA44802AEA54802AEA64802AEA741C
:10AC7800802AEA84802AEA94802AEAA4802AEAB40C
:10AC8800802AEAC4802AEAD4802AEAE4802AEAF4FC
:10AC9800802AEA04812AEA14812AEA24812AEA34E9
:10ACA800812100C32AEA06802AEA16802AEA268039
:10ACB8002AEA36802AEA46802AEA56802AEA668004
:10ACC8002AEA76802AEA86802AEA96802AEAA680F4
:10ACD8002AEAB6802AEAC6802AEAD6802AEAE680E4
:10ACE8002AEAF6802AEA06812AEA16812AEA2681D1
:10ACF8002AEA3681AFE08EC3DA0FD92100C42AEAE6
:10AD080008802AEA18802AEA28802AEA38802AEA6B
:10AD180048802AEA58802AEA68802AEA78802AEA5B
:10AD280088802AEA98802AEAA8802AEAB8802AEA4B
:10AD3800C8802AEAD8802AEAE8802AEAF8802AEA3B
:10AD480008812AEA18812AEA28812AEA388121001A
:10AD5800C52AEA0A802AEA1A802AEA2A802AEA3ACE
:10AD6800802AEA4A802AEA5A802AEA6A802AEA7A03
:10AD7800802AEA8A802AEA9A802AEAAA802AEABAF3
:10AD8800802AEACA802AEADA802AEAEA802AEAFAE3
:10AD9800802AEA0A812AEA1A812AEA2A812AEA3AD0
:10ADA800812100C62AEA0C802AEA1C802AEA2C8023
:10ADB8002AEA3C802AEA4C802AEA5C802AEA6C80EB
:10ADC8002AEA7C802AEA8C802AEA9C802AEAAC80DB
:10ADD8002AEABC802AEACC802AEADC802AEAEC80CB
:10ADE8002AEAFC802AEA0C812AEA1C812AEA2C81B8
:10ADF8002AEA3C812100C72AEA0E802AEA1E802A14
:10AE0800EA2E802AEA3E802AEA4E802AEA5E802AD2
:10AE1800EA6E802AEA7E802AEA8E802AEA9E802AC2
:10AE2800EAAE802AEABE802AEACE802AEADE802AB2
:10AE3800EAEE802AEAFE802AEA0E812AEA1E812AA0
:10AE4800EA2E812AEA3E81AFE08EF08FEE01E08F94
:10AE5800FE0020063E99E04018043E91E040F09044
:10AE68003CE090FE02200DAFE0903EC8E0913EC964
:10AE7800E09218083EC9E0913EC8E092C3DA0F217B
:10AE880000C02AEA40812AEA50812AEA60812AEA37
:10AE980070812AEA80812AEA90812AEAA0812AEA36
:10AEA800B0812AEAC0812AEAD0812AEAE0812AEA26
:10AEB800F0812AEA00822AEA10822AEA20822AEA13
:10AEC80030822AEA40822AEA50822AEA60822AEA02
:10AED80070822100C12AEA42812AEA52812AEA6262
:10AEE800812AEA72812AEA82812AEA92812AEAA2DE
:10AEF800812AEAB2812AEAC2812AEAD2812AEAE2CE
:10AF0800812AEAF2812AEA02822AEA12822AEA22BB
:10AF1800822AEA32822AEA42822AEA52822AEA62A9
:10AF2800822AEA72822100C22AEA44812AEA5481EA
:10AF38002AEA64812AEA74812AEA84812AEA9481C5
:10AF48002AEAA4812AEAB4812AEAC4812AEAD481B5
:10AF58002AEAE4812AEAF4812AEA04822AEA1482A3
:10AF68002AEA24822AEA34822AEA44822AEA548291
:10AF78002AEA64822AEA74822100C32AEA46812ADC
:10AF8800EA56812AEA66812AEA76812AEA86812AAD
:10AF9800EA96812AEAA6812AEAB6812AEAC6812A9D
:10AFA800EAD6812AEAE6812AEAF6812AEA06822A8C
:10AFB800EA16822AEA26822AEA36822AEA46822A79
:10AFC800EA56822AEA66822AEA7682AFE08EC3DAF5
:10AFD8000F2100C42AEA48812AEA58812AEA6881AE
:10AFE8002AEA78812AEA88812AEA98812AEAA881C5
:10AFF8002AEAB8812AEAC8812AEAD8812AEAE881B5
:10B008002AEAF8812AEA08822AEA18822AEA2882A1
:10B018002AEA38822AEA48822AEA58822AEA688290
:10B028002AEA78822100C52AEA4A812AEA5A812A2C
:10B03800EA6A812AEA7A812AEA8A812AEA9A812AAC
:10B04800EAAA812AEABA812AEACA812AEADA812A9C
:10B05800EAEA812AEAFA812AEA0A822AEA1A822A8A
:10B06800EA2A822AEA3A822AEA4A822AEA5A822A78
:10B07800EA6A822AEA7A822100C62AEA4C812AEA06
:10B088005C812AEA6C812AEA7C812AEA8C812AEA94
:10B098009C812AEAAC812AEABC812AEACC812AEA84
:10B0A800DC812AEAEC812AEAFC812AEA0C822AEA73
:10B0B8001C822AEA2C822AEA3C822AEA4C822AEA60
:10B0C8005C822AEA6C822AEA7C822100C72AEA4E3C
:10B0D800812AEA5E812AEA6E812AEA7E812AEA8E3C
:10B0E800812AEA9E812AEAAE812AEABE812AEACE2C
:10B0F800812AEADE812AEAEE812AEAFE812AEA0E1C
:10B10800822AEA1E822AEA2E822AEA3E822AEA4E07
:10B11800822AEA5E822AEA6E822AEA7E82AFE08E7C
:10B12800F08FEE01E08FFE0020063E99E040180403
:10B138003E91E040F0903CE090FE02200DAFE090A0
:10B148003EC8E0913EC9E09218083EC9E0913EC869
:10B15800E092F092672E007EE0423E03EA0020CDA6
:10B168000041FA84FFEA0020F099FE012007FA95D1
:10B17800FFFEFC2805E1D1C1F1D9E1D1C1F1E121FE
:10B188001C10E5D9F5F044E53C6FF092677E95E038
:10B1980042E1F1D9F33E00E047F0FFCB8FCBC7E0A7
:10B1A800FFAFE0882100CA1181153EC3227B227AB5
:10B1B800773E91E040FBCDE5003EFFE0473E02EAE6
:10B1C8000020E08421F84611008301900ACD610037
:10B1D80006140E1221484F110098CD700006140E67
:10B1E8001221B05011209CCD70003E01EA0020E0F1
:10B1F80084CDE5003EF4EA00C83EFBEA01C83EFF04
:10B20800EA02C8AFEA03C8EA04C8EA05C8EA06C8F9
:10B218003E01EA80FF3ED0EA81FF3E00EA82FF3E1F
:10B2280000EA83FF3E8FE0973E00E09806000E8F0D
:10B238003E55E047F044B820FBCD7A153EFFE04785
:10B24800F044B920FBCD7A153E55E047FA80FF67F8
:10B25800FA81FF6F0104007D916F7C98677CEA801A
:10B26800FF7DEA81FFFA82FF47FA83FF4F097CEAF4
:10B2780082FF7DEA83FFFA80FF67FA81FF6FFA9702
:10B28800FF47FA98FF4F79954F789C4778EA97FFE0
:10B2980079EA98FFFA82FF47FA97FF4F78FE47202E
:10B2A8008FAFE097057600003E55E047F044B820A0
:10B2B800FBCD7A153EFFE047F044B920FBCD7A1567
:10B2C8003E55E047050C78FE3B20DAAFE0973E029A
:10B2D800E0423EAAE0437600003E55E047F044FED7
:10B2E8003B20FACD7A153EFFE047F044FE5220FAA3
:10B2F800CD7A153EE1E047F0973CE097FE3E20D638
:10B308003E3DE097F0433C3CE043FE00280218C66F
:10B318007600003EC5E0473E03E043FA00C8E0423D
:10B32800F044FE3B20FACD7A15FA02C8E047FA014C
:10B33800C8E0433E00E042F044FE5220FACD7A15C0
:10B348003E02E0423E00E0433EE1E047FA03C83CEB
:10B35800EA03C8FE492813FE4D2817FE51281BFE94
:10B3680075281FFEFA2848C38C123E6FEA02C8C32C
:10B378008C123E5FEA02C8C38C123E8FEA02C8C331
:10B388008C123E74EA03C8FA05C83CEA05C8FE03F5
:10B398002072AFEA05C8FA00C83CEA00C8FA01C83A
:10B3A8003CEA01C8FE04205C3EF9EA03C818553E91
:10B3B800F9EA03C8FA04C83CEA04C8FE10280EFEDD
:10B3C800182823FE202826FE98283C1837CD7A1501
:10B3D8003E50EA10993E51EA11993E61EA30993E91
:10B3E80062EA3199181E3E4FEA02C81817CD7A153D
:10B3F8003E4EEA10993E4FEA11993E5FEA30993E77
:10B4080060EA3199C39811AFEA03C83EF0EA05C86B
:10B418007600003EC5E0473E03E043FA00C8E0423C
:10B42800F044FE3B20FACD7A15FA02C8E047FA014B
:10B43800C8E0433E00E042F044FE5220FACD7A15BF
:10B448003E02E0423EE1E047FA06C83D3DEA06C852
:10B45800E043FEA8CA2313FA03C83CEA03C8FE1057
:10B46800280BFE18280FFE202813C30A133E5FEA94
:10B4780002C8C30A133EAFEA02C8C30A133EFFEA72
:10B4880002C8FA05C83CEA05C8FE032083AFEA05EE
:10B49800C8FA00C83DEA00C8C39812063B0E5221FC
:10B4A80000417600003E55E047F044B820FBCD7AD5
:10B4B800153EFFE047F044B920FBCD7A153E55E034
:10B4C800477E47242A4F257DFE3820D606000E8E5B
:10B4D8007600003E00E047F044B820FBCD7A153EE8
:10B4E80055E047F044FE3F20FACD7A153EFFE0478D
:10B4F800F044FE4F20FACD7A153E55E047F044B9A6
:10B5080020FBCD7A153E00E047040D040D78FE407F
:10B5180020BE06000E8E7600003EFFE047F044B8DD
:10B5280020FBCD7A153E00E047F044FE3F20FACDDF
:10B538007A153EFFE047F044FE4F20FACD7A153EDB
:10B5480000E047F044B920FBCD7A153EFFE0470400
:10B558000D040D78FE3020BE06000E8E7600003EEB
:10B5680000E047F044B820FBCD7A153EFFE047F0F5
:10B5780044FE2F20FACD7A153E00E047F044FE3F06
:10B5880020FACD7A153EFFE047F044FE4F20FACD71
:10B598007A153E00E047F044FE5F20FACD7A153E6A
:10B5A800FFE047F044B920FBCD7A153E00E04704A0
:10B5B8000D040D78FE2020A406000E8E7600003EB5
:10B5C800FFE047F044B820FBCD7A153E00E047F095
:10B5D80044FE1F20FACD7A153EFFE047F044FE2FC7
:10B5E80020FACD7A153E00E047F044FE3F20FACD20
:10B5F8007A153EFFE047F044FE4F20FACD7A153E1B
:10B6080000E047F044FE5F20FACD7A153EFFE047A0
:10B61800F044FE6F20FACD7A153E00E047F044B9B9
:10B6280020FBCD7A153EFFE047040D040D78FE108F
:10B63800208ACDE5003E99E0403EE4E0473E08E040
:10B6480042AFE043AFE097CDE500CD7A15F0973CE7
:10B65800E097FE0C20F1F044FE7E20FA3E02EA005C
:10B6680020E084112A5221219C3E12E0973E10E0EE
:10B6780098CD7A151A227701070009CD7A151A2272
:10B6880077CD7A15091A2277010F000913F0973D33
:10B69800E097FE0020DB626B01200109545DCDE5D7
:10B6A80000F044FE7E20FA21259C3E12E097CD7AD8
:10B6B800151A22770107000922770117000913F0EC
:10B6C800973DE097FE0020E6626B0132017D916FA5
:10B6D8007C9867545DCDE500CD7A15CDE500212134
:10B6E8009C3E12E097F0983DE098FE00C2F914C322
:10B6F8001716F041E60320FAC9F5C5D5E5F0883CF0
:10B70800E088FED02816FED42832FED8280EFEDCAB
:10B71800284AFEE820663E00E08818603EA9EAAEA6
:10B72800993EAAEAAF993EABEAB0993EACEACE9907
:10B738003EADEACF993EAEEAD09918403EAFEAAEA8
:10B74800993EB0EAAF993EB1EAB0993EB2EACE99D5
:10B758003EB3EACF993EB4EAD09918203E78EAAED3
:10B76800993E79EAAF993E7AEAB0993E7FEACE9956
:10B778003E80EACF993E81EAD09918003E03EA005C
:10B7880020CD0041FA84FFEA0020E1D1C1F1D93E81
:10B7980002EA0020E08406140E012180411100987D
:10B7A800CD7000217C54110080014001CD61003E24
:10B7B80001EA0020E0842100D011004306901A130A
:10B7C800772422250520F7CDE500F3F0FFCBCFCB7A
:10B7D800C7E0FFF041CBDFE0413EE4E0472100CA8B
:10B7E80011701B3EC3227B227A772110CA11331EA7
:10B7F80006131A13220520FA3E91E0403E10E09B02
:10B80800E09CE09EE09F3EA7E09AE09DAFE0A13E6D
:10B8180040E0A2AFE0A43E40E0A5AFE0A0E0A33E38
:10B82800D1E0A93ED0E0ABAFE0AAE0A6E088E08591
:10B83800EA01C0E094210000010000FBF044FE0191
:10B8480020FAF088FE012814FE022839FE03285643
:10B85800FA9AFF3C3C3CEA9AFFC32F17F0A13CE060
:10B86800A126466F7EEA9BFFF0A23CE0A226466F27
:10B878007EC60CEA9CFFF0A03CE0A026476F7EEA5B
:10B888009AFFC32F17F0A1E0A126466F7EEA9BFF1F
:10B89800F0A2E0A226466F7EC60CE09CF09A3D3DE1
:10B8A8003D3DE09A1801AF4F060021000009090943
:10B8B800444D3E00E0A61128D23ED2E0A73E24E047
:10B8C800A8CD2918F044FE0120FAF088FE01CA79B3
:10B8D80017FE02CAB317FE03CAE417FA9DFF3C3CE1
:10B8E8003CEA9DFFFEFE2075473E01E08878C3E5EF
:10B8F80017F0A43C3CE0A426466F7EEA9EFFF0A524
:10B908003C3CE0A526466F7EC60CEA9FFFF0A33CB0
:10B91800E0A326486F7EEA9DFF47F0853CE085FE60
:10B928007F20043E02E08878C3E517F0A43C3CE0A1
:10B93800A426466F7EEA9EFFF0A53C3CE0A526467D
:10B948006F7EC60CEA9FFFF09DD60AE09D4730083F
:10B958003E03E088AFC3E51778C3E517AF4F06008D
:10B96800210000090909444D3E01E0A61128D33EF3
:10B97800D3E0A73E24E0A8CDAE18F044FE8F20FA0D
:10B98800F0AA3CE0AAFE02200DAFE0AA3ED0E0A952
:10B998003ED1E0AB18083ED1E0A93ED0E0ABC3C42D
:10B9A80016F09B672E00CD3919CD3919CD3919CD2F
:10B9B8003919CD3919CD3919CD3919CD3919CD39AB
:10B9C80019CD3919F0A757F0A85FFA9BFF672E0029
:10B9D800CDB019CDB019CDB019CDB019CDB019CDA4
:10B9E800B019CDB019CDB019CDB019CDB01921000D
:10B9F80000F09C67F0A9571E4809C506444C0AC1C7
:10BA0800121C7BFE9020F2210000F09C67F0A957E1
:10BA18001E477D916F7C9867C506444C0AC1121D6C
:10BA28007BFEFF20EDC9F09E672E00CD571ACD573B
:10BA38001ACD571ACD571ACD571ACD571ACD571AAE
:10BA4800CD571ACD571ACD571AF0A757F0A85FFA55
:10BA58009EFF672E00CDCC1ACDCC1ACDCC1ACDCCFA
:10BA68001ACDCC1ACDCC1ACDCC1ACDCC1ACDCC1A35
:10BA7800CDCC1A210000F09F67F0A9571E4809C5D0
:10BA880006454C0A471AA8C1121C7BFE9020EF21DC
:10BA98000000F09F67F0A9571E477D916F7C98675B
:10BAA800C506454C0A471AA8C1121D7BFEFF20EAAD
:10BAB800C9D5AFE0931644095C1AB728043E80E064
:10BAC80093095C1AB72806F093EE40E093095C1AD4
:10BAD800B72806F093EE20E093095C1AB72806F021
:10BAE80093EE10E093095C1AB72806F093EE08E08D
:10BAF80093095C1AB72806F093EE04E093095C1AE0
:10BB0800B72806F093EE02E093095C1AB72806F00E
:10BB180093EE01E093F093D112E51A67132F1213F5
:10BB28007C12132F1213E1C9D5AFE09316447D910F
:10BB38006F7C98675C1AB728043E01E0937D916F8B
:10BB48007C98675C1AB72806F093EE02E0937D9123
:10BB58006F7C98675C1AB72806F093EE04E0937D33
:10BB6800916F7C98675C1AB72806F093EE08E0930B
:10BB78007D916F7C98675C1AB72806F093EE10E009
:10BB8800937D916F7C98675C1AB72806F093EE2036
:10BB9800E0937D916F7C98675C1AB72806F093EE66
:10BBA80040E0937D916F7C98675C1AB72806F09304
:10BBB800EE80E093F093D112E51A67132F12137CED
:10BBC80012132F122107007B955F7A9C57E1C9D584
:10BBD800AFE0931644095C1AB728043E80E0930945
:10BBE8005C1AB72806F093EE40E093095C1AB72870
:10BBF80006F093EE20E093095C1AB72806F093EE5E
:10BC080010E093095C1AB72806F093EE08E0930950
:10BC18005C1AB72806F093EE04E093095C1AB7287B
:10BC280006F093EE02E093095C1AB72806F093EE4B
:10BC380001E093F093D112E51A671312132F121330
:10BC48001213E1C9D5AFE09316447D916F7C9867D4
:10BC58005C1AB728043E01E0937D916F7C98675C7D
:10BC68001AB72806F093EE02E0937D916F7C9867EF
:10BC78005C1AB72806F093EE04E0937D916F7C98E8
:10BC8800675C1AB72806F093EE08E0937D916F7C05
:10BC980098675C1AB72806F093EE10E0937D916FD1
:10BCA8007C98675C1AB72806F093EE20E0937D91A4
:10BCB8006F7C98675C1AB72806F093EE40E0937D96
:10BCC800916F7C98675C1AB72806F093EE80E09332
:10BCD800F093D112E51A1312132F12131221070031
:10BCE8007B955F7A9C57E1C9F5C5D5E53E01E0949F
:10BCF800F0AB672E007EE042F0A6FE00C2CD1C210C
:10BD080000D22AEA00802AEA02802AEA04802AEA83
:10BD180006802AEA10802AEA12802AEA14802AEA8F
:10BD280016802AEA20802AEA22802AEA24802AEA3F
:10BD380026802AEA30802AEA32802AEA34802AEAEF
:10BD480036802AEA40802AEA42802AEA44802AEA9F
:10BD580046802AEA50802AEA52802AEA54802AEA4F
:10BD680056802AEA60802AEA62802AEA64802AEAFF
:10BD780066802AEA70802AEA72802AEA74802AEAAF
:10BD880076802AEA80802AEA82802AEA84802AEA5F
:10BD980086802AEA90802AEA92802AEA94802AEA0F
:10BDA80096802AEAA0802AEAA2802AEAA4802AEABF
:10BDB800A6802AEAB0802AEAB2802AEAB4802AEA6F
:10BDC800B6802AEAC0802AEAC2802AEAC4802AEA1F
:10BDD800C6802AEAD0802AEAD2802AEAD4802AEACF
:10BDE800D6802AEAE0802AEAE2802AEAE4802AEA7F
:10BDF800E6802AEAF0802AEAF2802AEAF4802AEA2F
:10BE0800F6802AEA00812AEA02812AEA04812AEADB
:10BE180006812AEA10812AEA12812AEA14812AEA8A
:10BE280016812AEA20812AEA22812AEA24812AEA3A
:10BE380026812AEA30812AEA32812AEA34812AEAEA
:10BE48003681C3101E2100D32AEA01802AEA038022
:10BE58002AEA05802AEA07802AEA11802AEA13805A
:10BE68002AEA15802AEA17802AEA21802AEA23800A
:10BE78002AEA25802AEA27802AEA31802AEA3380BA
:10BE88002AEA35802AEA37802AEA41802AEA43806A
:10BE98002AEA45802AEA47802AEA51802AEA53801A
:10BEA8002AEA55802AEA57802AEA61802AEA6380CA
:10BEB8002AEA65802AEA67802AEA71802AEA73807A
:10BEC8002AEA75802AEA77802AEA81802AEA83802A
:10BED8002AEA85802AEA87802AEA91802AEA9380DA
:10BEE8002AEA95802AEA97802AEAA1802AEAA3808A
:10BEF8002AEAA5802AEAA7802AEAB1802AEAB3803A
:10BF08002AEAB5802AEAB7802AEAC1802AEAC380E9
:10BF18002AEAC5802AEAC7802AEAD1802AEAD38099
:10BF28002AEAD5802AEAD7802AEAE1802AEAE38049
:10BF38002AEAE5802AEAE7802AEAF1802AEAF380F9
:10BF48002AEAF5802AEAF7802AEA01812AEA0381A7
:10BF58002AEA05812AEA07812AEA11812AEA138155
:10BF68002AEA15812AEA17812AEA21812AEA238105
:10BF78002AEA25812AEA27812AEA31812AEA3381B5
:10BF88002AEA35812AEA37813E03EA0020CD0041BA
:10BF9800FA84FFEA0020F088FE03200AE1D1C1F10B
:10BFA800E121461EE5D9E1D1C1F1D9F5E5F0AB674C
:10BFB800F0946F7E95E0422C7DE094E1F1D9F33E58
:10BFC80055E047F0FFCB8FCBC7E0FFF041CBDFE078
:10BFD800413ED9EA10CA2100CA11E83F3EC3227B7C
:10BFE800227A773E91E040FB3E02EA0020E084217D
:10BFF800BC55110080010018CD610021BC6D1100F5
:10C0080098CD8A0021BC7111009CCD8A003E01EABE
:10C018000020E084CDE5003EE4E0473EC9E0403E34
:10C0280000E04A3E27E04B3E00E0B43E01E0B53E6A
:10C03800FCE0B63E80E0423EE0E043AFE08801FF2E
:10C04800002100D0AF220B78B120F976000006005D
:10C058000E64F0B567F0B46F097CE0B57DE0B444D8
:10C068007CFE0720053E06E0B547F04290FE80388A
:10C07800113E00E0B4F0B63CE0B6E0B5FE0028069C
:10C088003E00E04218C57600007600007600007693
:10C09800000076000076000076000076000076004A
:10C0A800007600007600007600007600007600003A
:10C0B8007600007600007600003EE1E0403E91E028
:10C0C8004321C5217600007EC690E0432AC627E0BA
:10C0D8004BFE4F280218EDAFE0ACCDE500F044B7B9
:10C0E80020FBF0AC3CE0ACFE0420EF11004AF04429
:10C0F800FE8020FA011800211898AFEA88FFD5F0D1
:10C1080041E60220FA1A1C221A1C221A1C221A1CA6
:10C11800221A1C221A1C221A1C221A1C22D109FAC1
:10C1280088FF3CEA88FFFE1220D41313131313135D
:10C1380013137AFE4B280218B5CDE500F3F0FFCBB8
:10C14800CFCBC7E0FF3E00E0433E4FE04B3EF1E07F
:10C1580040FBAFE0B2E0B3E0AEE0AF3E1AE0AC3E89
:10C1680010E0B13E75E0B03EFBE0AD7600003EF178
:10C17800E040F04447F0AE3CE0AE6F26D07E4FE69C
:10C188001F57F0B182E61F5779E6E0AA0490E04213
:10C198000000000000000000000000000000000097
:10C1A8000000000000000000000000000000003E49
:10C1B800E1E0407600003EF1E040F04447F0AE3C5C
:10C1C800E0AE6F26D07E4FE61F57F0B182E61F57CC
:10C1D80079E6E0AA0490E0420000000000000000B8
:10C1E8000000000000000000000000000000000047
:10C1F80000000000003EE1E04078FE9038B5F0AC69
:10C208003CE0ACFE1BC22521AFE0ACF0ADC605E0BA
:10C21800AD16495FF0B0C61BE0B026D06FF0B3C6CC
:10C2280003E0B3E61F471A1CFE00202FAF772C77D8
:10C238002C772C772C772C772C772C772C772C77DE
:10C24800F0B3D603E0B3F0B0D611E0B0F0ACC6114D
:10C25800E0ACF0ADD604E0ADC32521A8772C772C4F
:10C26800772C772C772C1A1CA8772C772C772C779F
:10C278002C772C1A1CA8772C772C772C772C772CDA
:10C288001A1CA8772C772C772C772C772C1AA87760
:10C298002C772C772C772C772CAF772C77F0B23C37
:10C2A800E0B2FE02200AAFE0B2F0B13CE61FE0B116
:10C2B800F0AF3CE0AFE0AE6F26D07E4FE61F57F000
:10C2C800B182E61F5779E6E0AAE0423EF1E040F08D
:10C2D800ADFE66C2F31F3EE1E0403EB8E043F0FF2A
:10C2E800CB8FE0FF21EB217600007EC690E0433A39
:10C2F800C627E04BFE2720EF3EC9E0403EE0E04382
:10C30800AFE0423E00E0B43E01E0B53EFEE0B67666
:10C3180000007600007600007600007600007600C7
:10C3280000760000760000760000F0423C3CE042D7
:10C33800FE8020F3C3EC2118FBFF0000000101027E
:10C348000203030405060708090A0B0D0E0F111254
:10C35800141517181A1B1C1E1F20212223242526FA
:10C3680026272728CDE5003E55E047F0FFCB8FE094
:10C37800FFF041CB9FE0413E04EA0020E084210029
:10C3880040110080010010CD61003E01EA0020E06C
:10C39800842126221100C40616CDB900181608AA51
:10C3A80008FF08FE08F908E44008F908FE08FF0835
:10C3B800AA0855411100CB0E14CD4E220D79B72095
:10C3C800F83EC9121825215C2206172A121305788F
:10C3D800B720F8C91A1C80D55F164C1AD14F1A1C01
:10C3E80080D55F164C1AD1CB37B122CDE50021009C
:10C3F800CA1134243EC3227B227A772110CA111332
:10C40800243EC3227B227A77F0FFCBCFCBC7E0FF55
:10C41800F041CBF7E0413E00E045AFE042E0433E6B
:10C4280002E0853E1CE086AFE0883E3FE0B73E6410
:10C43800E0B83E2BE0B93E14E0BAAFE0BBF0B7C6B7
:10C4480001E0B7F0B8D602E0B821004B1100C8F0FF
:10C45800B783836F7E4FF0B883836F7E81121C7B16
:10C46800FE2820EBF0B9C601E0B9F0BAD602E0BA6E
:10C4780021004B1100C9F0B983836F7E4FF0BA8356
:10C48800836F7E81121C7BFE2420EBC316232100C0
:10C49800D0AFE0BBF0BB4F06C90A471100C8CD00BA
:10C4A800CB010C0009F0BB3C3CE0BBFE24C21C23C2
:10C4B8002100D33E01E0BBF0BB4F06C90A4711007B
:10C4C800C8CD00CB010C0009F0BB3C3CE0BBFE250D
:10C4D800C23F23F044FE6020FAF044FE6120FA11C6
:10C4E80000D0210098CDA8237DC60C6F7BC60C5FB9
:10C4F800300224147DFE4020EC7CFE9A20E71100D7
:10C50800D321009CCDA8237DC60C6F7BC60C5F3061
:10C518000224147DFE4020EC7CFE9E20E7C3C52249
:10C52800F04447F045B828F81A1C471A1C4FF04445
:10C53800B728FBF041E60220FA782279221A221C59
:10C548001A221C1A221C1A221C1A221C1A221C1A11
:10C55800221C1A221CF04447F045B828F81A1C4738
:10C568001A1C4FF044B728FBF041E60220FA782263
:10C5780079221A221C1A221C1A221C1A221C1A227C
:10C588001C1A221C1A221C1A221CC9F5F041E602A8
:10C5980020FAF040EE08E040F045C604E04500000F
:10C5A80000000000000000000000F1D9F5C5E5D545
:10C5B8003E03E0453E91E0403E03EA0020CD0041C5
:10C5C800FA84FFEA0020CDC900F088FE012820F097
:10C5D8008567F0866F2B7CE0857DE0867CFE0020F9
:10C5E8000EF0BC3CE0BC3E01E088D1E1C1F1D9F0DD
:10C5F800BD67F0BC6F7EFE41200AD1E1C1F1E121A7
:10C608009124E5D9D1E1C1F1D92100CA11E83F3E11
:10C61800C3227B227A773E55E047F0FFCB8FE0FFBD
:10C62800F041CB9FCBB7E0413E04EA0020E08421F3
:10C6380000981600CDA00021005011008001B00E16
:10C64800CD610006140E1221B05E110098CD700065
:10C65800CDE5003EE4E0473E60E0433E04EA80FF6B
:10C668003E84EA81FF3E60EA82FF3E00EA83FF766D
:10C678000000FA80FF67FA81FF6F0110007D916F5B
:10C688007C98677CEA80FF7DEA81FFFA82FF47FA9F
:10C6980083FF4F097CEA82FF7DEA83FF7CE043FE4B
:10C6A800BF2005CD972518C7FE0020C33E007600A1
:10C6B800003CFE6020F8760000FA80FF67FA81FFF0
:10C6C8006F011000097CEA80FF7DEA81FFFA82FF92
:10C6D80047FA83FF4F097CEA82FF7DEA83FF7CE00B
:10C6E80043FE562005CDBB2518CCFEA020C8068EDB
:10C6F8007600003E55E047F044B820FB3EFFE04797
:10C70800050520EC06267600000520FAC3DC252165
:10C718001860110C980E120608F041E60220FA2A59
:10C7280012130520F406087BC6185F3E008A570DD1
:10C7380020E7C91100980E120608F041E60220FA17
:10C74800AF12130520F406087BC6185F3E008A570F
:10C758000D20E7C93EFFE0473E04EA0020E08421BF
:10C76800A860110080010010CD610021A87011009F
:10C7780098CD8A0021A87411009CCD8A003E01EA58
:10C788000020E0843E01EA0020E08411004D2100F1
:10C79800D00100021A13220B78B120F8AFE088E02C
:10C7A8008906001E001100C03E00E0423E0CE04336
:10C7B8002100407CEA10C07DEA11C03E8DEA12C01B
:10C7C8003E02EA01C03E00EA02C03E35EA03C03E2E
:10C7D80000EA04C0AFEA05C03E05EA0020E084AFE5
:10C7E800EA00C006072100401100D0F044FE8F285F
:10C7F8004AB820F7F041E60220FA7EFEFF20083E04
:10C80800FFE04704231821F53EE4E047F15F1A4FA3
:10C81800141AE040157CC620672AF57CD62067F1FB
:10C82800814F782F81E04204F044B820FBF041E6C4
:10C838000220FAF0423DE0420418B0FA01C067FA5B
:10C8480002C06F010500FA05C0FE01280D097CFE33
:10C858000320163E01EA05C0180F7D916F7C98678A
:10C86800FEFC20053E00EA05C07CEA01C07DEA0224
:10C87800C0FA03C047FA04C04F097CEA03C07DEA46
:10C8880004C07CFEF03006FE5A3009180CC65AEA7D
:10C8980003C01805D65AEA03C021004F6F3E01EACB
:10C8A8000020E08446246E60E5F0886FF0896723F5
:10C8B8007DE0887CE089E1F089FE01200CF088FEAB
:10C8C8005020063E4FE0881818FA12C03DEA12C000
:10C8D800FE0720073E08EA12C03E07471100D0189D
:10C8E80012FA12C03CEA12C0FE7E2003C39C2747FE
:10C8F8001100D03EFFE0470423F044B820FBF0418C
:10C90800E60320FAF0423DE042043E05EA0020E05A
:10C9180084C373263EFFE047F041CB9FE0412100EE
:10C92800CA11E83F3EC3227B227A770602760000CE
:10C938003E55E047F044B820FB3EFFE0470404784A
:10C94800FE9220E93E55E0472100981600CDA00050
:10C958003E06EA0020E08421E06F11008001000C0F
:10C96800CD61003E02EA0020E08406140E1221BCCC
:10C9780075110098CD7000210F281100D12A121CC2
:10C988007BFE1020F8181000000000000000004096
:10C9980040404040404040CDE5002100CA11B02849
:10C9A8003EC3227B227A773ED9EA10CA3E01EA00CA
:10C9B80020E0843EE4E047F0FFCBCFCBC7E0FFF0B8
:10C9C80041CBDFE0412100633E7EE0EBE0ECE0EDAF
:10C9D8003EF8E0EE3E80E043AFE0423E02E0853EB6
:10C9E80004E0863E04EA80FF3E08EA81FF3E80EAD2
:10C9F80082FF3E00EA83FF760000F0442F4726635B
:10CA0800F0ED91E0EDC6146F7E955FF0EC81E0ECFF
:10CA18006F7B8695E63F8068477D2F3CE60F6F2643
:10CA2800D17E80E042C37F28F5C5E5D53E03EA0004
:10CA380020CD0041FA84FFEA0020D1E1C1F1F08560
:10CA480067F0866F2B7CE0857DE0867CFE00CA1847
:10CA580029FA82FFFE00CA5629FA80FF67FA81FF89
:10CA68006F0110007D916F7C98677CEA80FF7DEAFA
:10CA780081FF444DFA82FF67FA83FF6F7D916F7CD7
:10CA880098677CEA82FF7DEA83FF7CE043C35629EE
:10CA9800FA82FFFE812831FA80FF67FA81FF6F0171
:10CAA80010007D916F7C98677CEA80FF7DEA81FFAA
:10CAB800444DFA82FF67FA83FF6F097CEA82FF7DA3
:10CAC800EA83FF7CE0431806E1219429E5D9F0EBDD
:10CAD800C601E0EBE0ECE0ED3E004FF0EEFE802812
:10CAE800053DE0EE18033E014F06002663F0ED9188
:10CAF800E0EDC6146F7E955FF0EC81E0EC6F7B860D
:10CB080095E63F80E042E1217F28E5D92100CA115E
:10CB18004C2C3EC3227B227A773E55E047F0FFCB70
:10CB28008FE0FFF041CB9FCBB7E0413EFCE0423EB7
:10CB3800F6E043AFE0C7E0C9E0C8E0CA3EFFE0CB9B
:10CB4800E0CC21D7291100C4065CCDB900185C04DB
:10CB580099A50899A50499A504DDF5400499A504AB
:10CB680099A5045555FF0455550499A50499A5049C
:10CB7800DDF5400499A50499A5045555FF045555BC
:10CB88000499A50499A504DDF5400499A50499A57F
:10CB9800045555FF0455550499A50499A504DDF5D8
:10CBA800400499A50499A5045555FF16002100983D
:10CBB800CDA0002100C1010003AF220B78B120F9FC
:10CBC800210080010010F041E60220FAAF220B7824
:10CBD800B120F33E04EA0020E08421A878110098EF
:10CBE8000E100610F041E60220FA2A12130520F46E
:10CBF80006107BC6105F3E008A570D20E73E01EA0B
:10CC08000020E084F0C8FE00CA172BFE01CAA52A3E
:10CC1800FE02CACB2AFE03CAF12AC3172BAFE0C90A
:10CC28003E02E0BE3EFEE0BF3E03E0C03EFFE0C184
:10CC38003EFFE0C23E4CE0C33EFFE0C43E4CE0C5D0
:10CC4800C3372BAFE0C93E02E0BE3EFFE0BF3E0265
:10CC5800E0C03EFEE0C13EC1E0C23E3DE0C33E80D2
:10CC6800E0C43E43E0C5C3372BAFE0C93E01E0BE98
:10CC78003EFFE0BF3EFEE0C03E06E0C13E04E0C22B
:10CC88003E3FE0C33EBDE0C43E3FE0C5C3372B3E58
:10CC9800FEE0BE3E03E0BF3E00E0C03E05E0C13E10
:10CCA80002E0C23E86E0C33E02E0C43E86E0C5F034
:10CCB800C24F2100D0AF47782281477DFE8020F700
:10CCC800F0C34F2100D1782281477DFE8020F7F004
:10CCD800C44F2100D2782281477DFE8020F7F0C51D
:10CCE8004F2100D3782281477DFE8020F7F0C7EEE0
:10CCF80001E0C7FE00201DF0CBE0472100C10680FF
:10CD08002A572A5FF041E60220FAAF121C1C1205CE
:10CD180020EE181BF0CCE0472100C206802A572AD3
:10CD28005FF041E60220FAAF121C1C120520EEAF9C
:10CD3800E0C61100D016D0F0BE6F1A851226536FC8
:10CD48007E47F0BF6F141A8512246F7E80874FF0DC
:10CD5800C06F141A8512256F7E47F0BE6F141A85AE
:10CD680012246F7E80D55FF0C7FE01202316511A6A
:10CD780067692CF041E60220FA141A47B6222C788B
:10CD8800B6322DF0C6875F16C27C121C7D121820A1
:10CD980016511A6769F041E60220FA141A47B622BA
:10CDA8002C78B6322DF0C6875F16C17C121C7D1216
:10CDB800D11C7BE0C6FE80C2BD2BF0C9FE00CA753F
:10CDC8002BC38C2AF5C5D5E53E03EA0020CD0041EA
:10CDD800FA84FFEA0020F0CA3CE0CAFEC02008AF8F
:10CDE800E0CAF0BC3CE0BCF0BD67F0BC6F7EFE4022
:10CDF8002817FEFF28153D77FE00200D232AE0CCDA
:10CE08002AE0CB7CE0BD7DE0BC181CF0BC3CE0BC5B
:10CE18003E01E0C9F0C83CE0C8FE03200AD1E1C1E8
:10CE2800F1E121B42CE5D9E1D1C1F1D93E55E04772
:10CE38003E00E0423E00E0432100CA11E83F3EC305
:10CE4800227B227A773E06EA0020E0842100401106
:10CE58000080018016CD610006140E122180561143
:10CE68000098CD700021FA2C1100C40612CDB9002B
:10CE7800181201AA08FF08FE08F908E44008F90892
:10CE8800FE08FF412100CA113B2D3EC3227B227AB6
:10CE9800773E01E0853EBCE086AFE088F044FE6066
:10CEA80020FA3E81E040F044FE9038FA3E91E0409E
:10CEB800C3242DF5C5D5E53E03EA0020CD0041FA8F
:10CEC80084FFEA0020CDC900F088FE012820F08503
:10CED80067F0866F2B7CE0857DE0867CFE00200E67
:10CEE800F0BC3CE0BC3E01E088D1E1C1F1D9F0BD25
:10CEF80067F0BC6F7EFE41200AD1E1C1F1E12190CB
:10CF08002DE5D9D1E1C1F1D93EFFE0473E00E0422D
:10CF18003E00E043F041CB9FE0412100CA11E83FC9
:10CF28003EC3227B227A772110CA11BF2F3EC3222B
:10CF38007B227A773E06EA0020E08421E857110038
:10CF480080010010CD61003E01EA0020E08421E369
:10CF58002D1100C6061CCDB900181C08FE08F908DA
:10CF6800E440089008400800FF0840089008E440A2
:10CF780008F908FE08FF41CDE5002100CA11D22FAB
:10CF88003EC3227B227A77F0FFCBCFCBC7E0FFF0FE
:10CF980041CBDFE0413E91E0403E01E0943E40E07D
:10CFA800D3AFE0D1E0CF3E00E0D63EC3E0D43EC3ED
:10CFB800E0D5AFE0893E02E0853E00E086F044FE21
:10CFC8000820FA06010E7FF0CD2FC63F6F260079A4
:10CFD800954F789C47F0D4571E47F0D2672E007DB6
:10CFE800916F7C98677CC610E61F121D7BFEFF20A0
:10CFF800EEF0D4571E48F0D2672E007CC610E61F0C
:10D00800121C097CC610E61F121C7BFE9020F3F050
:10D01800CE5F1600626B191919191919193E028485
:10D0280067545D626B191919191919191919190613
:10D03800200E00F0D08047097D2F6F7C2F670100FC
:10D04800D0197CE63F020C79FE1420F50100D021AE
:10D0580014D00AC640220C79FE1420F60114D021FF
:10D0680028D00AC640220C79FE2820F60128D021B3
:10D078003CD00AC640220C79FE3C20F6F08567F0C9
:10D08800866F2B7CE0857DE0867CFE00200D3E02CD
:10D09800E0853E30E086F0BC3CE0BCF0CF3C3C3C58
:10D0A800E0CF26556F7EE0CDF5F089FE012008F12E
:10D0B8007DC6806F7E1801F1E0CEF0D33CE0D36FDF
:10D0C80026567EE0D2F0D13CE0D16F26567EE0D0E5
:10D0D800F044FE8F20FAF0D6EE01E0D6FE00280AD2
:10D0E8003EC4E0D43EC3E0D518083EC3E0D43EC4F5
:10D0F800E0D5C3452EF0BD67F0BC6F7EFE41282306
:10D10800FE402814FEFF28113D77FE00200A232A3E
:10D11800E0477CE0BD7DE0BCC9F0BC3CE0BC3E0122
:10D12800E089C93E03EA0020CD0041FA84FFEA0005
:10D1380020FBE1E1C3ED30F5E5F0D567F0946F7EB3
:10D1480095E0422C7DE094E1F1D9010C0021009892
:10D158001100D01A1C221A1C221A1C221A1C221A6C
:10D168001C221A1C221A1C221A1C221A1C221A1CE3
:10D17800221A1C221A1C221A1C221A1C221A1C22CD
:10D188001A1C221A1C221A1C221A1C221A1C2209D6
:10D198001A1C221A1C221A1C221A1C221A1C221AB5
:10D1A8001C221A1C221A1C221A1C221A1C221A1CA3
:10D1B800221A1C221A1C221A1C221A1C221A1C228D
:10D1C8001A1C221A1C221A1C221A1C22091A1C2296
:10D1D8001A1C221A1C221A1C221A1C221A1C221A75
:10D1E8001C221A1C221A1C221A1C221A1C221A1C63
:10D1F800221A1C221A1C221A1C221A1C221A1C224D
:10D208001A1C221A1C221A1C22091A1C221A1C2255
:10D218001A1C221A1C221A1C221A1C221A1C221A34
:10D228001C221A1C221A1C221A1C221A1C221A1C22
:10D23800221A1C221A1C221A1C221A1C221A1C220C
:10D248001A1C221A1C22CD7D2FFB3E01E094F0D53A
:10D25800672E007EE0423E03EA0020CD0041FA84BA
:10D26800FFEA0020D93EFFE047F0FFCB8FCBC7E0B5
:10D27800FF2101CA11E83F7B227A77160021009C22
:10D28800CDA00016FF210080CDA0003E06EA0020B8
:10D29800E08406140E1221E867110098CD7000068C
:10D2A800140E1221506911009CCD70003E07EA004F
:10D2B80020E084F0FFCBCFCBC7E0FFCDE5003E00F8
:10D2C800E0D8AFE0D93E40E0DA3E00E0DB2110CA0A
:10D2D8001131323EC3227B227A772100C516FF1E08
:10D2E800087A227DFE91280C151D7BFE0020F21481
:10D2F8001E0818EDCDE5003E00E0423E80E0433ECA
:10D3080004EA80FF3E84EA81FF3E80EA82FF3E0015
:10D31800EA83FFAFE0883E00E0893EC0E08A210052
:10D32800CA116F323EC3227B227A772110CA11318B
:10D33800323EC3227B227A77F0D8FE20200B3E4073
:10D34800E0DA3E00E0DBAFE0D86F266D7E4F0601E5
:10D35800F0DA67F0DB6F1100D0CD2D337CE0DA7D99
:10D36800E0DBF0D83CE0D8F044FE0120FA2110CAF6
:10D37800113F323EC3227B227A77AFE0D71100D02B
:10D38800F0D9EE01E0D9FE0020092100803E99E0A5
:10D398004018072100823E91E040F044FE0120FA47
:10D3A800F044FE8F20FAC3B331F5E5F0443C6F2614
:10D3B800C57EE042E1F1D9F51A221C1A221C1A2274
:10D3C8001C1A2213E5F0443C6F26C57EE042E1F0CA
:10D3D800D73CE0D7FE80200D2110CA1131323EC360
:10D3E800227B227A77F1D9F5C5D5E53E03EA0020FC
:10D3F800CD0041FA84FFEA00203EE4E047F088FED1
:10D40800012845FE02285BFA80FF67FA81FF6F0159
:10D4180014007D916F7C98677CEA80FF7DEA81FF2C
:10D42800444DFA82FF67FA83FF6F7D916F7C98679E
:10D438007CEA82FF7DEA83FF7CE043FE80CA2333D7
:10D44800FE0020043E01E088F08967F08A6F2B7C9B
:10D45800E0897DE08A7CB520043E02E088E1D1C104
:10D46800F1D9FA80FF67FA81FF6F011400097CEA9D
:10D4780080FF7DEA81FF444DFA82FF67FA83FF6FE0
:10D488007D916F7C98677CEA82FF7DEA83FF7CE070
:10D4980043FE79CA2333E1D1C1F1D9E1D1C1F1E128
:10D4A800214D33E5D92AFEC0D23B3312130B78B194
:10D4B80020F3C9C5E63F472A4F7912130520FAC160
:10D4C8000B0B18EAC93EFFE047F0FFCB8FCBC7E054
:10D4D800FF2100CA11E83F3EC3227B227A7716005B
:10D4E800210080CDA0001628210098CDA000162884
:10D4F80021009CCDA0003E06EA0020E08406140E20
:10D508000121B86F110098CD700006140E0121CCCE
:10D518006F11009CCD700021B86A110083010005CD
:10D52800CD610021BB3311F0FF0E0A2A12130D2022
:10D53800FA180A3ECDE0463E283D20FDC93E01EAE4
:10D548000020E0841100572100CD06A01A13772C83
:10D558000520F9CDE500CDF0FF3E00E0483E97E01C
:10D5680040F044FE9038FAFA00CDFE392814CDF088
:10D57800FF2100CD01040016A07E3C77091520F993
:10D5880018DFCDE500CD7A15CDE500CD7A15CDE5CE
:10D5980000CD7A15CDE500CD7A15CDE500CD7A150B
:10D5A800CDE500CD7A15CDE500CD7A15CDE500CDD8
:10D5B8007A15CDE5003E55E048CD7A15CDE500CD8C
:10D5C8007A15CDE500CD7A15CDE500CD7A15CDE5F6
:10D5D80000CD7A15CDE500CD7A15CDE500CD7A15CB
:10D5E800CDE500CD7A15CDE500CD7A15CDE5003E27
:10D5F800AAE048CD7A150100082100D03E00220B90
:10D6080078B120F8CDE5002100CA1149383EC3227F
:10D618007B227A772110CA110C1006101A132205E2
:10D6280020FA3EF3E047F0FFCBCFCBC7E0FFF04155
:10D63800CBDFE041AFE042E043E08EE08FE090E0F6
:10D6480092E091E094E095E096E097E098E0AD3EB6
:10D6580058E0DD3E04E0AC3E00E0DC3EC9E0913E2F
:10D66800C8E0923E30E088F044FE0220FAF0963C92
:10D678003CE096F0883DE088FE0028043EFF180F45
:10D688003E01E088F0DC3C3C3CE0DC6F26587EE064
:10D6980095CDBD05010AC03EC0E0973E09E0983E21
:10D6A800D0E08DCD4009010AC13EC1E0973E09E0B6
:10D6B800983ED1E08DCD4009010AC23EC2E0973EB6
:10D6C80009E0983ED2E08DCD4009010AC33EC3E08F
:10D6D800973E09E0983ED3E08DCD40093E01E08EAB
:10D6E800010AC43EC4E0973E09E0983ED4E08DCDDF
:10D6F8004009010AC53EC5E0973E09E0983ED5E0DD
:10D708008DCD4009010AC63EC6E0973E09E0983E25
:10D71800D6E08DCD4009010AC73EC7E0973E09E033
:10D72800983ED7E08DCD4009F0954F0600F09167FF
:10D738002E4716F41E007B915F7A9857C610327BED
:10D74800915F7A9857C610327B915F7A9857C610C6
:10D75800327B915F7A9857C610327B915F7A9857DF
:10D76800C610327B915F7A9857C610327B915F7AE8
:10D778009857C610327B915F7A9857C610327B91C2
:10D788005F7A9857C610327B915F7A9857C61032E5
:10D798007B915F7A9857C610327B915F7A9857C60B
:10D7A80010327B915F7A9857C610327B915F7A98D6
:10D7B80057C610327B915F7A9857C610327B915FBB
:10D7C8007A9857C610327B915F7A9857C610327B89
:10D7D800915F7A9857C610327B915F7A9857C61036
:10D7E800327B915F7A9857C610327B915F7A98574F
:10D7F800C610327B915F7A9857C610327B915F7A58
:10D808009857C610327B915F7A9857C610327B9131
:10D818005F7A9857C610777DFEFFC2BE35F09157E4
:10D828001E4826F42E00097CC610121C097CC6105E
:10D83800121C097CC610121C097CC610121C097C1B
:10D84800C610121C097CC610121C097CC610121CBA
:10D85800097CC610121C097CC610121C097CC61053
:10D86800121C097CC610121C097CC610121C097CEB
:10D87800C610121C097CC610121C097CC610121C8A
:10D88800097CC610121C097CC610121C097CC61023
:10D89800121C097CC610121C097CC610121C097CBB
:10D8A800C610121C097CC610121C097CC610121C5A
:10D8B800097CC610121C7BFE90C2AE363E02E08E7A
:10D8C800F0AC3DE0ACB7C246383E04E0ACF0AD6F1A
:10D8D80026592AD6414F7DE0AD26006929292929F4
:10D8E800292901005B09F0DDC608E0DD4F06D0C537
:10D8F8002A020C2A020C2A020C2A020C2A020C2ADE
:10D90800020C2A020C2A02C104C52A020C2A020CA3
:10D918002A020C2A020C2A020C2A020C2A020C2ABD
:10D9280002C104C52A020C2A020C2A020C2A020C83
